:1000000023EF09F00000000000EF00F00000000006
:0A0010000000000000000000F3D71C
:0E001C000001D2B102D08A9201D08A82120075
:0E002A000001D2B102D08D9201D08D82120061
:0E0038000001D2B102D08B9801D08B8812004B
:0E0046000001D2B102D0899201D0898212004D
:0E0054000001D2B102D08B9401D08B84120037
:0E0062000001D2B102D0899401D0898412002D
:0E0070000001D2B102D08B9C01D08B8C12000B
:0E007E000001D2B102D08B9601D08B86120009
:0E008C000001D2B102D08B9A01D08B8A1200F3
:0E009A000001D2B102D08B9A01D08B8A1200E5
:1000A800D2C06AFF016A0150000A05E1000E68B07B
:0C00B800010E016EF8D76ACF01F01200B3
:0E00C4000001D2B102D08B9201D08B821200CB
:0E00D2000001D2B102D08A9001D08A801200C3
:0E00E000ACB202D00000FCD7D2C0ADFF1200BF
:0E00EE000001D2B102D08B9C01D08B8C12008D
:0E00FC000001D2B102D0899801D0898812008B
:0E010A000001D2B102D08B9601D08B8612007C
:0E0118000001D2B102D08B9E01D08B8E12005E
:0E0126000001D2B102D08B9801D08B8812005C
:0E0134000001D2B102D08D9001D08D8012005A
:0E0142000001D2B102D08B9601D08B86120044
:0E0150000001D2B102D08F9401D08F84120032
:0E015E000001D2B102D08B9801D08B88120024
:10016C00D2C0C9FF016A0150000A05E1000EC7B0F8
:0C017C00010E016EF8D7C9CF00F0120090
:0E0188000001D2B102D08F9201D08F821200FE
:0E0196000001D2B102D08F9001D08F801200F4
:1001A400D2C06AFF016A0150000A05E1000E68B07E
:0C01B400010E016EF8D76ACF00F01200B7
:0E01C0000001D2B102D08A9401D08A841200CC
:0E01CE000001D2B102D08D9601D08D861200B4
:0E01DC000001D2B102D08D9401D08D841200AA
:0E01EA000001D2B102D08B9801D08B88120098
:0E01F8000001D2B102D08B9A01D08B8A120086
:0E0206000001D2B102D08B9601D08B8612007F
:0E0214000001D2B102D08B9601D08B86120071
:0E0222000001D2B102D08B9E01D08B8E120053
:0E0230000001D2B102D08B9601D08B86120055
:0E023E000001D2B102D08B9801D08B88120043
:10024C000F0121B302D00000FBD7D2C01CFF12005B
:10025C00D2C0C9FF016A0150000A05E1000EC7B007
:0C026C00010E016EF8D7C9CF01F012009E
:0E0278000001D2B102D08B9001D08B80120019
:0E0286000001D2B102D08B9801D08B881200FB
:0E0294000001D2B102D0899001D08980120001
:1002A200E00E0001A16F000EA26FD20EA36F000E2E
:1002B200A46FFF0EA96FFF0EAA6F000EAB6F000EA8
:1002C200AC6FFF0EB96FFF0EBA6F000EBB6F000E60
:1002D200BC6FFF0EB56FFF0EB66F000EB76F000E4C
:1002E200B86FAC8A900EAB6E948E949C9EAA03D08B
:0802F200AECF00F0FBD71200B3
:1002FA006C0E0001676F010E686FD20E696F000EF7
:10030A006A6F5C0E636F020E646FD20E656F000E29
:10031A00666F949ACE51040A02E1948601D09496AB
:10032A009488C66AC79CC79ECE51C612D051C612BF
:10033A00CF51C712D05305E0D151000AD8B4C78CA7
:0C034A0003D0D153D8A4C78CC68A12007F
:100356004C0E0001A16F020EA26FD20EA36F000E0B
:10036600A46FFF0EA96FFF0EAA6F000EAB6F000EF3
:10037600AC6FFF0EB96FFF0EBA6F000EBB6F000EAB
:10038600BC6FFF0EB56FFF0EB66F000EB76F000E97
:10039600B86F0F01218B900E226F98849892A4AAB1
:0A03A60003D01DCF00F0FBD71200BA
:1003B000086A096A100E0C6E0134083609360450BA
:1003C000085E0550D8A0053C095ED8B007D004509F
:1003D00008260550D8B0053C0926D89000360136CD
:0603E0000C2EEAD712000A
:1003E600F250026EF29E0500FF6A0150FE6E00504A
:0803F600FD6E02BEF28E120042
:1003FE00C7C0F6FFC8C0F7FFC9C0F8FF0900F5CFA8
:10040E00CEF0040E0001C725F66E000EC821F76E61
:10041E00000EC921F86E0900F5CFCFF0080EC725E2
:10042E00F66E000EC821F76E000EC921F86E090097
:10043E00F5CFD0F00C0EC725F66E000EC821F76E64
:10044E00000EC921F86E0900F5CFD1F04FDF000E76
:04045E00006E12001A
:1004620021D0CF0EAF6EAC941BDF6BD0670EAF6E98
:10047200AC9416DF66D0CF0EAF6EAC8411DF61D0C4
:10048200670EAF6EAC840CDF5CD0440EAF6EAC84F2
:1004920007DF57D0220EAF6EAC8402DF52D0060EB9
:1004A200006E58D00001000E006ECA1908E100501B
:1004B200C91905E1120EC81902E1C751C00AD1E0FB
:1004C200000E006ECA1908E10050C91905E1250E97
:1004D200C81902E1C751800AC9E0000E006ECA19AC
:1004E20008E10050C91905E14B0EC81902E1C751D4
:1004F200000AC1E0000E006ECA1908E10050C919D5
:1005020005E1960EC81902E1C751000AB9E0000ED2
:10051200006ECA1908E10050C91905E1E10EC819B7
:1005220002E1C751000AB1E0CA51000A08E1C9510B
:10053200010A05E1C851C20A02E1C751000AAAE054
:10054200AED7E00E6B6F000E6C6FD20E6D6F000EA9
:060552006E6F006A12004A
:10055800C7C0F6FFC8C0F7FFC9C0F8FF0900F5CF4C
:10056800CEF0040E0001C725F66E000EC821F76E06
:10057800000EC921F86E0900F5CFCFF0080EC72587
:10058800F66E000EC821F76E000EC921F86E09003C
:10059800F5CFD0F00C0EC725F66E000EC821F76E09
:1005A800000EC921F86E0900F5CFD1F0A2DE000EC9
:0405B800006E1200BF
:1005BC0021D0CF0EAF6EAC946EDE6BD0670EAF6EEB
:1005CC00AC9469DE66D0CF0EAF6EAC8464DE61D0C5
:1005DC00670EAF6EAC845FDE5CD0440EAF6EAC8445
:1005EC005ADE57D0220EAF6EAC8455DE52D0060EBA
:1005FC00006E58D00001000E006ECA1908E10050C0
:10060C00C91905E1120EC81902E1C751C00AD1E09F
:10061C00000E006ECA1908E10050C91905E1250E3B
:10062C00C81902E1C751800AC9E0000E006ECA1950
:10063C0008E10050C91905E14B0EC81902E1C75178
:10064C00000AC1E0000E006ECA1908E10050C91979
:10065C0005E1960EC81902E1C751000AB9E0000E77
:10066C00006ECA1908E10050C91905E1E10EC8195C
:10067C0002E1C751000AB1E0CA51000A08E1C951B0
:10068C00010A05E1C851C20A02E1C751000AAAE0F9
:10069C00AED7E00E6B6F000E6C6FD20E6D6F000E4E
:0606AC006E6F006A1200EF
:1006B20021D0CF0EAF6EAC94F3DD6BD0670EAF6E70
:1006C200AC94EEDD66D0CF0EAF6EAC84E9DD61D0C6
:1006D200670EAF6EAC84E4DD5CD0440EAF6EAC84CA
:1006E200DFDD57D0220EAF6EAC84DADD52D0060EBB
:1006F200006E58D00001000E006ECA1908E10050C9
:10070200C91905E1120EC81902E1C751C00AD1E0A8
:10071200000E006ECA1908E10050C91905E1250E44
:10072200C81902E1C751800AC9E0000E006ECA1959
:1007320008E10050C91905E14B0EC81902E1C75181
:10074200000AC1E0000E006ECA1908E10050C91982
:1007520005E1960EC81902E1C751000AB9E0000E80
:10076200006ECA1908E10050C91905E1E10EC81965
:1007720002E1C751000AB1E0CA51000A08E1C951B9
:10078200010A05E1C851C20A02E1C751000AAAE002
:10079200AED7E00E6B6F000E6C6FD20E6D6F000E57
:0607A2006E6F006A1200F8
:1007A80038D00F0120870D0E1F6F040E1E6F218594
:1007B800CEDD7ED00F012087060E1F6F820E1E6FC2
:1007C8002185C5DD75D00F012087030E1F6F400EF0
:1007D8001E6F2185BCDD6CD00F012087010E1F6FB5
:1007E800A00E1E6F2185B3DD63D00F012087010E97
:1007F8001F6F150E1E6F2185AADD5AD00F012087A5
:100808001F6B8A0E1E6F2185A2DD52D0060E006E68
:1008180059D0000E006E0001CA1908E10050C9192C
:1008280005E1120EC81902E1C751C00ABAE0000E6C
:10083800006ECA1908E10050C91905E1250EC8194A
:1008480002E1C751800AB6E0000E006ECA1908E13D
:100858000050C91905E14B0EC81902E1C751000A39
:10086800B2E0000E006ECA1908E10050C91905E18E
:10087800960EC81902E1C751000AAEE0000E006EDC
:10088800CA1908E10050C91905E1E10EC81902E1C9
:10089800C751000AAAE0CA51000A08E1C951010A71
:1008A80005E1C851C20A02E1C751000AA7E0AED764
:1008B80000014C0E6B6F020E6C6FD20E6D6F000E46
:0608C8006E6F006A1200D1
:1008CE00C7C0F6FFC8C0F7FFC9C0F8FF0900F5CFD3
:1008DE00CEF0040E0001C725F66E000EC821F76E8D
:1008EE00000EC921F86E0900F5CFCFF0080EC7250E
:1008FE00F66E000EC821F76E000EC921F86E0900C3
:10090E00F5CFD0F00C0EC725F66E000EC821F76E8F
:10091E00000EC921F86E0900F5CFD1F0E7DC000E0C
:04092E00006E120045
:1009320059D00001C8B102D0929201D092820F0127
:10094200259376D00001C8B102D0929801D0928846
:100952006FD00001C8B102D0969201D0968268D0C1
:100962000001C8B102D0949601D0948661D00001F2
:10097200C8B102D0949801D094885AD00001C8B16D
:1009820002D0949A01D0948A53D00001C8B102D007
:10099200949401D094844CD00001C8B102D09392B7
:1009A20001D0938245D00001C8B102D0949E01D0FB
:1009B200948E3ED00001C8B102D0949C01D0948C98
:1009C20037D00001C8B102D0949601D0948630D0BD
:1009D2000001C8B102D0949801D0948829D0010EA8
:1009E200006E28D00001C751000AA3E0C751010AD6
:1009F200A9E0C751020AADE0C751030AB1E0C751ED
:100A0200040AB5E0C751050AB9E0C751060ABDE0BC
:100A1200C751070AC1E0C751080AC5E0C751090A10
:100A2200C9E0C7510A0ACDE0C7510B0AD1E0D7D7B6
:060A3200000E006E120030
:100A38000001CB6B050ECB5D0AE2CB51C925E16EF7
:100A4800000ECA21E26E200EE66ECB2BF3D7CB51F7
:100A5800C925E16E000ECA21E26EE66ACB07CB51CA
:100A6800C925CC6F000ECA21CD6F0A0E046E000E88
:100A7800056EC7C000F0C8C001F096DC08C000F0E1
:100A880009C001F0300E0026CCC0E1FFCDC0E2FF66
:100A980000C0E6FF0A0E046E000E056EC7C000F027
:100AA800C8C001F081DC00C0C7F001C0C8F0000E6A
:100AB800011802E1000E001801E102D0CB07CFD7E0
:020AC80012001A
:100ACA0059D00001C8B102D0929001D092800F0192
:100ADA00259176D00001C8B102D0949001D09480BB
:100AEA006FD00001C8B102D0969001D0968068D02C
:100AFA000001C8B102D0949601D0948661D0000159
:100B0A00C8B102D0949801D094885AD00001C8B1D3
:100B1A0002D0949A01D0948A53D00001C8B102D06D
:100B2A00949201D094824CD00001C8B102D0939023
:100B3A0001D0938045D00001C8B102D0949E01D063
:100B4A00948E3ED00001C8B102D0949C01D0948CFE
:100B5A0037D00001C8B102D0949601D0948630D023
:100B6A000001C8B102D0949801D0948829D0010E0E
:100B7A00006E28D00001C751000AA3E0C751010A3C
:100B8A00A9E0C751020AADE0C751030AB1E0C75153
:100B9A00040AB5E0C751050AB9E0C751060ABDE023
:100BAA00C751070AC1E0C751080AC5E0C751090A77
:100BBA00C9E0C7510A0ACDE0C7510B0AD1E0D7D71D
:060BCA00000E006E120097
:100BD000C7C0CBF0C8C0CCF0C9C000F0CAC001F09B
:100BE000010E0001C95F000ECA5B0050011015E044
:100BF000B3C0E1FFB4C0E2FFE66AB1C000F0B2C02A
:100C000001F0F3EC01F0CBC0E1FFCCC0E2FF00C08B
:0C0C1000E6FF0001CB4BCC2BDFD712001D
:100C1C006DC0E1FF6EC0E2FFC7C0E9FFC8C0EAFFCC
:100C2C00EECFE6FF6BC000F06CC001F0F3EC01F00E
:040C3C00006A120038
:100C4000C7C0F6FFC8C0F7FFC9C0F8FF0900F5CF5D
:100C5000ADF00900F5CFAEF00900F5CFAFF0090017
:100C6000F5CFB0F0040E0001C725F66E000EC821C6
:100C7000F76E000EC921F86E0900F5CFB1F009003A
:100C8000F5CFB2F00900F5CFB3F00900F5CFB4F01D
:020C9000120050
:100C9200080E0001C725F66E000EC821F76E000E81
:100CA200C921F86E0900F5CFA5F00900F5CFA6F02D
:0E0CB2000900F5CFA7F00900F5CFA8F0120059
:100CC0005DD00001C8B102D0929401D092840F018E
:100CD00025957AD00001C8B102D0969601D09686AB
:100CE00073D00001C8B102D0969401D096846CD024
:100CF0000001C8B102D0949601D0948665D000015D
:100D0000C8B102D0949801D094885ED00001C8B1D7
:100D100002D0949A01D0948A57D00001C8B102D071
:100D2000989001D0988050D00001C8B102D093941F
:100D300001D0938449D00001C8B102D0989401D069
:100D400098840F01239540D00001C8B102D0989239
:100D500001D098820F01239337D00001C8B102D08F
:100D6000949601D0948630D00001C8B102D09498F6
:100D700001D0948829D0010E006E28D00001C751FF
:100D8000000A9FE0C751010AA5E0C751020AA9E085
:100D9000C751030AADE0C751040AB1E0C751050AC3
:100DA000B5E0C751060AB9E0C751070ABDE0C7510F
:100DB000080AC1E0C751090AC7E0C7510A0ACDE0D5
:0E0DC000C7510B0AD1E0D7D7000E006E12000B
:100DCE0015D0BEC0C7F0BFC0C8F078DE1AD0BEC006
:100DDE00C7F0BFC0C8F0A6DD14D0BEC0C7F0BFC0FC
:100DEE00C8F067DF0ED0010E006E0BD00001BD51B2
:100DFE00000AE7E0BD51010AEAE0BD51020AEDE04A
:040E0E00F2D7120005
:100E12001DD0BEC0C7F0BFC0C8F0C0C0C9F0ACECA6
:100E220002F01FD0BEC0C7F0BFC0C8F0C0C0C9F03A
:100E32004DDD17D0BEC0C7F0BFC0C8F0C0C0C9F0FA
:100E4200FFEC01F00ED0010E006E0BD00001BD517F
:100E5200000ADFE0BD51010AE5E0BD51020AEAE005
:040E6200F2D71200B1
:100E6600BDC0C0F0BEC0C1F00D0E5F6E0A0E00011F
:100E7600606F35D0C0C0C7F0C1C0C8F0CCDE3AD074
:100E8600C0C0E9FFC1C0EAFFEE5209E0C0C0C7F02A
:100E9600C1C0C8F0C0DE0001C04BC12BF1D72AD0BB
:100EA600C0C0E9FFC1C0EAFFEE5209E0C0C0C7F00A
:100EB600C1C0C8F0B0DE0001C04BC12BF1D70001A4
:100EC6005F0EC76F000EC86FA6DE600E0001C76F0B
:100ED600000EC86FA0DE0ED0060E006E0CD000010C
:100EE600BF51000AC7E0BF51010ACAE0BF51020A5A
:080EF600D7E0F2D7006A1200F8
:100EFE000001C36BC46BBDC0C5F0BEC0C6F0800E92
:100F0E00BE19006E800E005C02E1000EBD5D0BE2AC
:100F1E00010EC36F000EC46FBD510008C56FBEC079
:100F2E00C6F0000EC657C5C0C7F0C6C0C8F0BFC0D9
:100F3E00C9F0C0C0CAF079DD060EC16F000EC26FD7
:100F4E00000E006EC251005C02E1C151000819E2B0
:100F5E00C151BF25E16EC251C021E26E010EC15DCD
:100F6E00006E000EC259016E0050BF25E96E015091
:100F7E00C021EA6EEECFE6FF010EC15F000EC25B2E
:100F8E00DFD7BFC0E1FFC0C0E2FF200EE66EC35147
:100F9E00C4111AE0C16BC26BC151BF25E96EC251BB
:100FAE00C021EA6EEE50200A03E1C14BC22BF4D7EA
:100FBE00010EC15F000EC25BC151BF25E16EC25171
:0A0FCE00C021E26E2D0EE66E120047
:100FD800A7C0E1FFA8C0E2FFE66AA5C000F0A6C06E
:100FE80001F0F3EC01F05F0E0001C76F000EC86F4F
:100FF800020EC96F000ECA6FE7DDA7C0E1FFA8C0E7
:10100800E2FF010EE66EA5C000F0A6C001F0F3EC09
:1010180001F01F0E5F140001BD6FBE6B000EBE17FE
:10102800000EBE6F070E006EBDC002F0BEC003F01A
:10103800005005E0023602900336FF0FFAD702C0CF
:10104800BDF003C0BEF060C000F00032009E000E8C
:10105800016E025000120350011200C0BDF001C021
:04106800BEF01200C4
:10106C00C0C0C7F0C1C0C8F0C2C0C9F0E3DDBDC08C
:10107C00C7F0BEC0C8F0BFC0C9F005DEA7C0E1FF15
:10108C00A8C0E2FFE66AA5C000F0A6C001F0F3EC30
:04109C0001F012004D
:1010A0002FD0BEC0C7F0BFC0C8F0C0C0C9F0C1C01B
:1010B000CAF059EC03F032D0BEC0C7F0BFC0C8F0D0
:1010C000C0C0C9F0C1C0CAF0DEEC02F027D0BEC07B
:1010D000C7F0BFC0C8F0C0C0C9F0C1C0CAF0D4ECEE
:1010E00003F01CD0BEC0C7F0BFC0C8F0C0C0C9F07C
:1010F000C1C0CAF031EC02F011D0010E006E0ED06A
:101100000001BD51000ACDE0BD51010AD5E0BD513D
:0E111000020ADDE0BD51100AE5E0EFD7120043
:10111E00090E0B6E1E0E0C6EE40E0D6E0D2EFED70E
:0C112E000C2EFCD70B2EFAD7000012008C
:10113A000001BD6B020EBE6FBF6B44DE0001BD6BCA
:10114A00FE0EBE6F120EBF6F000EC06F5DDE010E87
:10115A00BD6F800EBE6F250EBF6F000EC06FC16FD0
:06116A009ADFD8DF12003D
:101170000900F5CFE6FF0006FBE10106F9E11200E8
:10118000540E0001BD6F120EBE6F000EBF6F0E0E2B
:10119000C06F130EC16F000EC26F68DF290E000111
:1011A000BD6F000EBE6F020EBF6F5DDE150E00013B
:1011B000BD6F000EBE6F020EBF6F55DEB0DF1200B6
:1011C0000BDF00C061F001C062F03A50005C026EBB
:1011D0003B500158036E0350515C02E10250505CD9
:1011E00031E261513A5C016E62513B58026E02502D
:1011F000515C02E10150505C25E2520EBD6F000EC1
:10120000BE6F010EBF6F2FDE61C0BDF062C0BEF0C9
:101210006F0E0001BF6F000EC06F71DE6F0EBD6FED
:10122000000EBE6F020EBF6F1EDE3C0E0001BD6FD2
:10123000000EBE6F020EBF6F16DE61C03AF062C0D4
:061240003BF06DDF12001F
:0E1246008BEC09F077DF99DFB8DFFED7FFD71A
:1013160010EE15F04A0E006E010E016EB40EF66E5A
:0E132600120EF76E000EF86EB8EC08F0120012
:101254009402D2007802D2003401D2004201D200BA
:101264005E01D2009A00D200C400D200D200D200A3
:101274001801D200EE00D2007E00D2003800D20065
:10128400FFFFFFFFFFFFFFFFFFFFFFFFFFFFFFFF6A
:10129400FFFFFFFFFFFFFFFFFFFFFFFFFFFFFFFF5A
:1012A400FFFFFFFFFFFFFFFFFFFFFFFFFFFFFFFF4A
:1012B4002D2D2D2D2D2D2D2D2D2D2D2D2D2D2D2D5A
:0412C4002D2D2D009F
:1012C80020204C696E2048616C6C20636C69636BEC
:0112D8000015
:0212D900000013
:1012DB002D2D2D2D2D2D2D2D2D2D2D2D2D2D2D2D33
:0412EB002D2D2D0078
:0212EF001E00DF
:0D12F100204144432056616C75653A200091
:1012FE0002000000000000000000000001000000DD
:08130E005C02D2006C01D20068
:020000040030CA
:0E00000015137F7CF98B91FFFFC0FFE0FF40DE
:00000001FF
